:020000040800F2
:10000000A0090020650100087D3400085F25000874
:1000100000000000000000000000000000000000E0
:100020000000000000000000000000008134000813
:1000300000000000000000007F3400088334000846
:100040007701000800000000770100087701000830
:1000500077010008770100087701000877010008A0
:100060000000000077010008B9070008D107000868
:100070007701000877010008770100080000000000
:100080007701000800000000000000007701000870
:100090000000000077010008F9340008612500081D
:1000A0000000000077010008000000000D3B000880
:1000B00000F002F800F046F80CA030C80838241808
:1000C0002D18A246671EAB4654465D46AC4201D190
:1000D00000F038F87E460F3E0FCCB646012633427C
:1000E00000D0FB1AA246AB46334318471C3B000026
:1000F0003C3B0000103A02D378C878C1FAD85207C6
:1001000001D330C830C101D504680C6070470000CD
:100110000023002400250026103A01D378C1FBD823
:10012000520700D330C100D50B60704710B5642969
:1001300002D100F0FFF810BD002010BD1FB51FBD9B
:1001400010B510BD00F0CDFA1146FFF7F7FF03F030
:100150001FFD00F0E5FA03B4FFF7F2FF03BC00F067
:10016000EBFA00000748804707480047FEE7FEE734
:10017000FEE7FEE7FEE7FEE704480549054A064BB1
:1001800070470000F7340008B1000008A003002009
:10019000A0090020A0050020A0050020FEB505460E
:1001A00010460C46184373D0AE468C460020AD1A5C
:1001B00001469C4167D36646002701243D46B61A96
:1001C0009D4102D313463A462124654676462F04C4
:1001D000360C3E432D0CB61A9D4104D3150C1B045E
:1001E0002B4312041034654676462F06360A3E43EA
:1001F0002D0AB61A9D4104D3150E1B022B43120281
:100200000834654676462F0736093E432D09B61A4F
:100210009D4104D3150F1B012B431201241D65467C
:100220007646AF07B6083E43AD08B61A9D4104D3E3
:10023000950F9B002B439200A41C65467646EF0762
:1002400076083E436D08B61A9D411AD392185B4159
:10025000641C16E00018764665464941B71A9D4170
:100260000191009009D36046B11A98418E468446A8
:10027000009801990025401C6941DD0752082A4376
:100280005B08641EE6D57246634603B0F0BDFFE727
:1002900000200146C046C0462A462346F5E7000036
:1002A0000FB41CB5074B06AA7B446946009005981D
:1002B00000F0EBF90020694600F0FAF91CBC08BC1C
:1002C00004B0184705040000F8B50E4604460020A7
:1002D00020622046E1688847002829D0252802D0DE
:1002E0006268A16820E0E168204600278847050091
:1002F0001ED028464138192802D80127FF02203590
:100300003246204627602946FFF710FF002808D014
:10031000012804D0F61DF608F6000836D9E7361D88
:10032000D7E762682846A1689047206A401CCFE75B
:10033000206AF8BDF7B5002575291068009914A644
:1003400011D0C046C046002802DA404211A608E09B
:10035000009909688A0701D50FA602E0490704D56C
:100360000EA6012501E0C046C046009F00242437A8
:1003700004E000F0A2F930313955641C0028F8D1AE
:100380002B4632462146009800F022F9FEBD0000BF
:10039000000000002D0000002B00000020000000E5
:1003A000034670B502460B439B070FD10E4CE60186
:1003B00000E008C208C91D1B9D433542F9D0D9B2DF
:1003C0001170521C00290DD01B0AF8E70B78491C4C
:1003D0001370521C002B05D00B78491C1370521C53
:1003E000002BF3D170BD00000101010130B5441CA8
:1003F00003E00178401C00290DD08107F9D10B4B97
:10040000DD0104C8D11A91432940FAD0001B0A0625
:1004100003D0C01E30BD001B30BD0A0401D0801EB9
:1004200030BD0902FCD0401E30BD000001010101B9
:1004300001E004C0091F0429FBD28B0701D502800B
:10044000801CC90700D00270704700290BD0C30779
:1004500002D00270401C491E022904D3830702D532
:100460000280801C891EE3E70022EEE70022DFE71E
:10047000002203098B422CD3030A8B4211D30023A1
:100480009C464EE003460B433CD4002243088B427B
:1004900031D303098B421CD3030A8B4201D3944608
:1004A0003FE0C3098B4201D3CB01C01A52418309FB
:1004B0008B4201D38B01C01A524143098B4201D3B5
:1004C0004B01C01A524103098B4201D30B01C01AE0
:1004D0005241C3088B4201D3CB00C01A524183085A
:1004E0008B4201D38B00C01A524143088B4201D387
:1004F0004B00C01A5241411A00D2014652411046E7
:1005000070475DE0CA0F00D04942031000D340425B
:10051000534000229C4603098B422DD3030A8B4291
:1005200012D3FC22890112BA030A8B420CD389012F
:1005300092118B4208D3890192118B4204D3890115
:100540003AD0921100E08909C3098B4201D3CB0153
:10055000C01A524183098B4201D38B01C01A524108
:1005600043098B4201D34B01C01A524103098B420C
:1005700001D30B01C01A5241C3088B4201D3CB00F7
:10058000C01A524183088B4201D38B00C01A5241DA
:10059000D9D243088B4201D34B00C01A5241411AB1
:1005A00000D20146634652415B10104601D34042DF
:1005B000002B00D54942704763465B1000D3404290
:1005C00001B50020C046C04602BD70477047704765
:1005D000FFB504460D4681B024300090216888069E
:1005E00004D51022E0699143216000E00120A84277
:1005F00001DD471B00E000270498A1697A19101853
:10060000081AA0612078C00602D42046C046C04621
:10061000002608E003986268A168805D9047206A20
:10062000401C761C206204988642F3DB2078C006CA
:100630000AD52046C046C04606E06268A168302060
:100640009047206A401C206238467F1E0028F4DC58
:1006500007E000986268A168405D9047206A401CEE
:10066000206228466D1E0028F3DC2046C046C046A6
:100670002078000602D5022005B0F0BD0120FBE77E
:1006800001694A1C02610878704700B58FB0029179
:100690000021059105490193794403911146049085
:1006A0006846FFF711FE0FB000BD0000E5FFFFFF39
:1006B0000A681070521C0A60704701468008081AC8
:1006C00002091018020A1018020C1018C008820043
:1006D00012185200891A01E0401C0A390A29FBD27B
:1006E0007047754600F024F8AE460500694653464B
:1006F000C008C000854618B020B5FFF73DFD60BCBE
:1007000000274908B6460026C0C5C0C5C0C5C0C53B
:10071000C0C5C0C5C0C5C0C5403D49008D46704775
:1007200010B50446C046C0462046FFF714FD10BD74
:10073000004870474003002001491820ABBEFEE787
:10074000260002007047000008B514211348FFF787
:100750008BFE12480A3801781148012902780BD023
:1007600002290ED003290ED004290ED00DA10B486A
:10077000FFF716FE012008BD0BA10848FFF790FD0A
:100780000AE04278F8E78278F6E7817800914378CA
:1007900006A10248FFF784FD002008BD2C030020BD
:1007A00010000020455252002564000025642C25CD
:1007B000642C25640000000010B5034800F0F3F934
:1007C000024800F0F0F910BDEC000020A800002065
:1007D00010B5034800F0E7F9024800F0E4F910BD55
:1007E000480200208C02002010B50446006805492C
:1007F00040181421FFF73CFE800020640248E063AB
:1008000010BD0000F8FFFDBF0000024030B5056CD0
:100810000124AC40C56B6C60046863604368102BB6
:10082000036803D099600068C26030BD9A600068B8
:10083000C16030BD72B6FEE7F8B50025044620342D
:100840000095227D012A39D00122227503689E6815
:10085000760767D4384F4E68BE424DD09E6A0F78F7
:10086000BA4016439E620123C26A1B079A421FD0F8
:10087000012A1DD0022A1BD0032A19D0042A17D01E
:10088000052A15D0062A13D0072A11D002688B68D2
:1008900056697607760FB3420AD05369DB08DB004E
:1008A0005361006842690B7A5B075B0F1A43426130
:1008B0000A68102A04D0112A02D038E00220F8BDBC
:1008C0001E488368102A07D00122920513438360D3
:1008D0000868102803D02AE00122D205F6E719485B
:1008E00017490068FFF7C4FD0A21484300E0401E95
:1008F00000900028FBD11AE0986A0E78B24090432D
:1009000098620968102901D0112910D10B4882681A
:10091000102904D0012189058A43826007E0012162
:10092000C905F9E7816B202211438163012500206D
:1009300020752846F8BD0000011000000027014086
:1009400040420F000C000020F8B5002604460028A5
:1009500005D0A06B25462035002802D007E00120F5
:10096000F8BD0020E0632875204600F0A9F8A06BD0
:100970001022C006002870DB2068816849076CD40B
:10098000A16B1301994302231943A163816889076D
:10099000890F012905D10168C9070FD1C168090470
:1009A0000CD4C16818239943A3681943C160206817
:1009B0000169636889008908194301612068C16879
:1009C0003D4B1940C160207E617E8003C90308430E
:1009D000A17E4B031843A36A012B02D001231B0302
:1009E00000E000231843E36818432369022B09D071
:1009F000002318432B79E57E5B0018430123012D6A
:100A000002D00AE00423F4E7002927D0A16B2025B7
:100A10002943A163E16B1943E163E1690D46FF3DA1
:100A2000C23D02D0256A294308432168CD680543A9
:100A3000CD600125E16A2D07A94213D0012911D00B
:100A400002290FD003290DD004290BD0052909D084
:100A5000062907D0072905D010E028E00121090464
:100A60000843DAE721684D69ED08ED004D61216822
:100A70004D69A78D7F077F0F3D434D612168C96890
:100A80000E4D2940814207D10020E063A06B800811
:100A90008000401CA06308E0A06B02218843104343
:100AA000A063E06B1843E06301263046F8BDA06BFD
:100AB0001043A063F8E700001902FEFFE7FF3F8341
:100AC00010B586B0044614216846FFF7CFFC1049E4
:100AD0002068884219D10F48826941150A43826112
:100AE00082690A400592426909020A4342614069EB
:100AF0000840059001200090032001900020029002
:100B000009206946C00600F0FDF806B010BD0000DF
:100B1000002401400010024030B5014620314B78DE
:100B20000022022B04D0042383630A70012030BD0D
:100B300003681C680E25AC431C6003681C686408CD
:100B400064001C600123056C1C46C06BAC40446013
:100B50004B700A70002030BD70B500240146203172
:100B60004A78022A03D004218163012416E0026836
:100B700013680E25AB431360026813685B085B00C3
:100B800013600122056C1346AB40C56B6B604A7065
:100B900000220A70416B002900D08847204670BDB2
:100BA000203040787047F0B4C16B0D6801680C6864
:100BB0000422066C1346B3402B420DD063070BD5BD
:100BC0000B689B0602D40B6893430B60016C8A4050
:100BD000C16B4A60C16A19E00227B74002462F4044
:100BE00001232032002F15D0A70713D50C68A406C7
:100BF00004D40C680A25AC430C605370036C0221CA
:100C00009940C36B596000211170816A002916D088
:100C1000F0BC08470827B7402F4210D024070ED554
:100C20000C680E25AC430C60046C1946A140C46BE3
:100C300061608363537000211170016BE6E7F0BCC3
:100C40007047000070B5040021D0022120462030FA
:100C500005464170226811680E48A368014060682B
:100C600026691843E3683343184363691843A3694B
:100C70001843E3691843084310602046FFF7B4FDAA
:100C80000021A163012068702970084670BD012011
:100C900070BD00000FC0FFFFF8B504468C46203041
:100CA00001780025012909D0012606704178002726
:100CB000012905D0077002252846F8BD0220F8BD9D
:100CC00002214170A763206801684908490001605A
:100CD00061462046FFF79AFDE06A00282068016817
:100CE00002D00E22114306E00A221143016020685F
:100CF000016804229143016020680168314301606A
:100D0000DAE70000F8B5002303240125BAE02E46F7
:100D10009E40B44632407CD00E79B607B60F012E05
:100D200001D0022E17D186682746B6465E00B7402E
:100D300000967646BE43B646CF68009EB7407646DC
:100D40003743876046686746BE430F79FF06FF0F4B
:100D50009F40374347600E79F643B6070ED0C6680A
:100D60002746B4465E00B646B7406646BE43B44624
:100D70008F687646B74066463743C7600E79B60738
:100D8000B60F022E14D1DE08B60036180096366A69
:100D90005F07B446FE0E0F27B646B7406646BE4311
:100DA000B4460F697646B74066463743009E3762C1
:100DB00006682746B4465E00B646B7406646BE4360
:100DC0000F79B446BF07BF0F7646B7406646374334
:100DD00007604E68B603B60F53D02D4FBE692E4341
:100DE000BE61BE699F08F607F60F2A4EBF00BE1906
:100DF0000096B6680F27B4469E07360FB646B74032
:100E00006646BE430927FF06B446B84202D1002712
:100E100010E036E0204FB84201D101270AE01F4F11
:100E2000B84201D1022705E01D4FB84201D1032786
:100E300000E005277646B74066463743009EB76018
:100E4000184EB6684F689643FF0200D51643154FFB
:100E5000BE60FE684F689643BF0200D51643114F2F
:100E6000FE607E684F689643BF0300D516430D4F62
:100E70007E603E684F689643FF0300D51643094ADB
:100E800016605B1C0A681646DE4000D03FE7F8BDDE
:100E90000010024000000140000400480008004823
:100EA000000C004800040140002A01D08161704715
:100EB0008162704701488068704700000000002090
:100EC00070B5024640325378202B1CD11378012B89
:100ED00019D00123137024245470046825689D439D
:100EE0002560046825681E03B543256004682568ED
:100EF0000D4325600068016819430160202050708F
:100F00000020107070BD022070BD70B502464032E6
:100F10005378202B1BD11378012B18D00124147087
:100F20002423537003681D68A5431D6005682B6862
:100F30000F263602B343090219432960006801688D
:100F400021430160202050700020107070BD0220ED
:100F500070BD704710B5094B02689A4207D1012352
:100F60005B06002904D01422054900F065FA10BD83
:100F700003490A22143900F0A5F910BD00540040BD
:100F80002C03002070B503689A691968D243D40510
:100F900008D4CC43240605D4446C01252C43446476
:100FA0002C02DC61530509D4CB431B0606D4436CE9
:100FB000082423434364E3010468E361920509D4F0
:100FC000C943090606D4416C02221143416411024F
:100FD0000268D161416C0B22114201D001F0C6FBC5
:100FE00070BD026891691268436B002B00D01847EE
:100FF0007047000010B5014640314A78202A01D0E0
:10100000022010BD28224A70034941630121C9030F
:1010100001F020FB002010BDA92F0008F8B5044600
:101020000068264988422ED1616CC90701D081151C
:10103000C161606C800703D5012021684002C8614E
:10104000606C40072CD521681020C861608D0A2192
:10105000081A02041A4F120C0FD01A4900200B462E
:1010600005460A3303E00E5C1E540D54401C9042AA
:10107000F9DBFFF769FB002806D03B460A2211493D
:10108000204600F01FF9F8BD0E481430FFF7AEF906
:101090000C4982B23B461431204600F0CDF9F8BD30
:1010A000606C000703D5012021688002C861606C74
:1010B000072021680002C861F8BD0000005400400C
:1010C000000000021803002070B5040006D0254679
:1010D000403568780026002802D005E0012070BD68
:1010E0002E70204600F060F82420687020680168A7
:1010F0004908490001600F2160680906884321689A
:10110000086121688A680120C00382438A60E1681F
:101110000129A1682FD021229202114322689160F7
:101120000121E268C902022A2268536825D08B4354
:10113000536021684A68124B1A434A602168CA68A2
:101140008243CA60616920690843A16909020843B2
:101150002168C860216AE069084321680860206846
:1011600001680122114301606664202068702663D3
:10117000AE70002070BD0143D0E70B43D8E70000FC
:101180000080000210B50446FFF734FF01235B0620
:101190000A220249204600F095F810BD18030020ED
:1011A0007047704770477047F0B587B00646142106
:1011B0006846FFF75BF92C493068884251D12B4CC7
:1011C0006169012080050143616161690140059108
:1011D000C020009012200190012002900320039073
:1011E00069462348FFF78EFDE16901204005014370
:1011F000E161E169204C01401E480025059121C4B0
:1012000025608020A560E5608701676125616060D9
:101210001948083CFFF716FD002801D0FFF70AFB2C
:10122000F46366621348144C143844342060102070
:10123000A560606025616561E7618020A561E0606F
:101240002046FFF7FFFC002801D0FFF7F3FAB46354
:10125000002211461720666200F030FA172000F0D5
:1012600021FA07B0F0BD0000005400400010024019
:101270000014004830000240A800002070B5044669
:1012800000680D49884216D10C4A002113460846D1
:101290000A33555C5D545054491C0B29F9DBFFF7A8
:1012A00053FA002807D1054901235B0614221431A3
:1012B000204600F0C1F870BD005400401803002023
:1012C00070470000FFB505464035697881B0164685
:1012D000044628273846884317D10298002811D0A1
:1012E000002E0FD04F49204601F08BF928780128B5
:1012F0000CD001202870687829280AD068782A281C
:1013000021D036E00120400260646CE0022005B08C
:10131000F0BD0121204601F074F9206801684904FC
:1013200027D5A16B002924D00168012292039143A3
:101330000160A16B3C484863A06BFFF70DFC0028DF
:1013400017D0A06B13E020680168090411D502686A
:101350000121C9038A430260E06B002809D03249A9
:101360004163E06BFFF7F8FB002802D0E06B416BB4
:1013700088472A2068702020A870002060642168B7
:101380004A680123DB039A434A60029961626685D9
:10139000618D21850499E16224496163E16B002933
:1013A0001AD0234A8A62E26B224906461163E06B37
:1013B000C662E06B46632168238DE06B2431029A9C
:1013C000FFF76AFC002810D06F70AE70606C1021BF
:1013D000084360642E7006E06F70A870616C802214
:1013E000114361642870012091E7608D218D401ABE
:1013F000608526852068816982690907C90FD20343
:1014000003D4002901D00821C1612E702068016831
:101410000122D20311430160911C204601F01AF908
:10142000002074E70280000081250008A52E000836
:10143000B52500089D250008FFB5054640356978AB
:1014400081B01646044628273846884317D10298AB
:10145000002811D0002E0FD02878012810D00120AC
:1014600028704E49204601F0CCF868782A280AD026
:101470006878292821D036E00120400260646CE0C1
:10148000022005B0F0BD0221204601F0BAF8206824
:101490000168090427D5E16B002924D002680121E5
:1014A000C9038A430260E16B3D484863E06BFFF784
:1014B00053FB002817D0E06B13E020680168490453
:1014C00011D50268012189038A430260A06B0028BC
:1014D00009D033494163A06BFFF73EFB002802D0DF
:1014E000A06B416B8847292068702020A8700020DD
:1014F000606421684A680123DB039A434A600299C9
:1015000061626685618D21850499E1622549616387
:10151000A16B00291AD0244A8A62A26B234906468D
:101520001163A06BC662A06B46632268238DA06B1B
:1015300028320299FFF7B0FB002810D06F70AE7010
:10154000606C1021084360642E7006E06F70A87014
:10155000616C8022114361642870012091E7608DE5
:10156000218D401A60852685206881698269090776
:10157000C90F120CD207D20F03D0002901D00821C5
:10158000C1612E702068016801229203114301603D
:101590005100204601F05EF8002072E70180000053
:1015A00081250008A52E0008DF2500089D250008DC
:1015B0000248816802788918816070470000002025
:1015C00010B506480168102211430160032000F0A5
:1015D00007F800F053F8002010BD00000020024082
:1015E00030B505461F4887B08269012189040A4346
:1015F000826180690840009005A901A800F05AF9AD
:101600000498002815D000F071F940001649FEF743
:101610002FFF411E1648154A0260164AC2604160FB
:10162000002101618160816100F0B8FB040003D0FA
:1016300015E000F05BF9E9E70D4800F0D5FB040088
:101640000DD1162000F02EF8042D07D200222946D5
:10165000162000F033F80848056000E00124204619
:1016600007B030BD0010024040420F00004801406A
:10167000D0020020E70300000400002008B508485D
:101680008169012211438161816911400091C26920
:1016900001040A43C261C0690840009008BD00000F
:1016A00000100240002805DBC106C90E0120884059
:1016B000014908607047000000E100E010B502F049
:1016C00045FA10BDF8B505460068354CC00352D543
:1016D000E0690026C00007D4E16920040143E1610C
:1016E000E1690140012600912E480168C90510D426
:1016F0000168821511430160FFF7DCFB074604E037
:10170000FFF7D8FBC01B642824D826480068C00512
:10171000F6D5206A03273F02384020D06968394057
:1017200081421CD0206A226AB843012109040A437D
:101730002262226A8A4322622062C0070FD0FFF72A
:10174000B9FB009008E0FFF7B5FB0099411A164875
:10175000814201D90320F8BD206A8007F3D5206AB1
:101760006968B84308432062002E04D0E169012073
:1017700000078143E1612878C00705D0206BA96884
:1017800080088000084320632878800605D5206BF8
:1017900010218843E968084320630020F8BD000059
:1017A000001002400070004088130000F8B50F469A
:1017B000060059D03A4D2868C007C00FB84209D278
:1017C000286840084000384328602868C007C00FD8
:1017D000B84249D13068334C81070CD5400704D555
:1017E000606807210902084360606068F02188434F
:1017F000B168084360603078C00726D0706801285F
:101800000ED0216802280ED0890700292CDA6168E1
:101810008908890001436160FFF74CFB00900DE0EF
:1018200021688903F1E78901EFE7FFF743FB00999E
:10183000411A1D48814201D90320F8BD60680C217E
:101840000840716889008842EFD12868C007C00F3E
:10185000B8420BD9286840084000384328602868FF
:10186000C007C00FB84201D00120F8BD3078400752
:1018700006D56068072109028843F1680843606063
:1018800000F044F86168094A0906090F515CC84034
:10189000074908600320FFF7A3FE0020F8BD000001
:1018A000002002400010024088130000F03B0008B6
:1018B0000C00002010B5072202600A4A53689B07FB
:1018C0009B0F43605368F0242340836052680723D2
:1018D0001B021A40C26004480068C007C00F0860BD
:1018E00010BD0000001002400020024004480549DD
:1018F00000684968044A4905490F515CC84070476F
:101900000C00002000100240003C000810B5104AF6
:1019100051680C200B4603400E48042B17D0082BAF
:1019200015D18B020C4C1B0FE45CD26A0A4B1207D8
:10193000120F10339A5CC90305D500231946FEF730
:101940002DFC214601E02046044902F0E7F810BDD5
:101950000010024000127A00D03B000800093D0050
:10196000FEB5040070D02078DC4DC0074AD068680E
:101970000007800F012807D068680007800F022841
:1019800009D16868C00306D5286880033AD5606825
:101990000028E7D036E06168012914D001208004D6
:1019A000002901D0052914D02A68012109048A439D
:1019B0002A602968814329606068002816D0FFF7F3
:1019C00079FA06460EE028680121090408432860D8
:1019D000F2E7296801432960F5E7FFF76BFA801BFE
:1019E00064286ED828688003F7D50BE0FFF762FA09
:1019F000064604E0FFF75EFA801B6428F1D82868E9
:101A00008003F7D420780126800700283CDA686834
:101A10000007800F07D068680007800F022809D1EF
:101A20006868C00306D42868800716D5E0680128D6
:101A30000AD112E0E0680028286816D030432860F8
:101A4000FFF738FA074605E043E1FFF733FAC01B1A
:101A50000228C6D828688007F7D52868F821884367
:101A60002169C900084328600EE040084000286052
:101A7000FFF720FA074604E0FFF71CFAC01B022814
:101A8000AFD828688007F7D42078000722D5E0690E
:101A90000028686A0ED030436862FFF70BFA0746E9
:101AA00004E0FFF707FAC01B02289AD8686A80078B
:101AB000F7D50FE0400840006862FFF7FBF90746E2
:101AC00005E09DE0FFF7F6F9C01B022889D8686A97
:101AD0008007F7D4207804274007002860DA002028
:101AE0000190E869C00008D4E969B8060143E961DA
:101AF000E969014001200091019079480168C90518
:101B000011D40168821511430160FFF7D3F90090E9
:101B100005E0FFF7CFF90099401A642870D87048A3
:101B20000068C005F5D5A06801280AD0002801D0BA
:101B3000052810D0286A400840002862286AB84367
:101B400001E0286A30432862A068002812D0FFF71D
:101B5000B1F900900AE0286A38432862F1E7FFF7FC
:101B6000A9F90099411A5F48814249D8286A80073B
:101B7000F5D50DE0FFF79EF9009006E0FFF79AF922
:101B80000099411A574881423AD8286A8007F5D40B
:101B90000198002804D0E969012000078143E96128
:101BA0002078C00635D5606901280CD0401D686BCF
:101BB00023D038436863686B400840006863FFF7D0
:101BC00079F9064622E0686B38436863686B3043F6
:101BD0006863FFF76FF9064604E0FFF76BF9801BB7
:101BE00002285BD8686B8007F7D5686BF8218843BB
:101BF000A169C900084368630BE0B8436863F4E770
:101C00004CE0FFF757F9801B022847D8686B800724
:101C1000F7D4206A00285ED069680907890F022975
:101C200042D0012636060228286805D0B043286035
:101C3000FFF740F9044633E0B0432860FFF73AF974
:101C4000074604E0FFF736F9C01B022826D82868AB
:101C50008001F7D4E86AE16A000900010843E862FC
:101C6000616AA06A084369683D22120491430843EF
:101C70006860286830432860FFF71CF9044604E0D8
:101C8000FFF718F9001B022808D828688001F7D54B
:101C900021E0FFF70FF9001B022801D90320FEBD48
:101CA00028688001F5D416E00128F8D06868E96A50
:101CB00001221204636A02409A420AD10907E26AC9
:101CC000090F914205D10F2189040840A16A884279
:101CD00001D00120FEBD0020FEBD0000001002402A
:101CE00000700040881300007047704730B503460D
:101CF00020331A7F012A26D001221A770325CA68C9
:101D00002D02AA438D6800242A430125AD02AA436F
:101D10004D6800682A430125ED02AA430D682A4355
:101D200001252D03AA430D692A4301256D03AA430A
:101D30004D69C9692A430125AD03AA430A43426498
:101D40001C77002030BD022030BD0000F0B50246F7
:101D50002032137F012B1BD00126167702235377E5
:101D600005686B68AC687027BB430F681F436F60E2
:101D70000068084B984202D0074B984204D1802358
:101D800049689C4321438160567700201077F0BD5D
:101D90000220F0BD002C01400004004070B504009A
:101DA00005D025462035687F002802D006E00120B6
:101DB00070BD00202877204600F014F802206877D4
:101DC000211D206801F0A0FB01204034A071A877FC
:101DD000E87720706070A070E070207160716877A3
:101DE000002070BD70470000014620314A7F012A63
:101DF00001D00120704702224A770268D36801218E
:101E00000B43D3600068084A904202D0074A9042D0
:101E100004D182685207520F062A02D002680A4390
:101E20000260002070470000002C014000040040C8
:101E30007047F8B504460068C66805690027A90719
:101E4000002913DAB10711D5F91E016101202077AD
:101E5000206880698007204602D0FFF7E9FF04E090
:101E600000F0CCF8204600F075F92777680716D502
:101E7000700714D504202168C04308610220207730
:101E8000206880698005800F204602D0FFF7D0FFD0
:101E900004E000F0B3F8204600F05CF9277728074B
:101EA00015D5300713D508202168C04308610420E8
:101EB00020772068C0698007204602D0FFF7B8FF6E
:101EC00004E000F09BF8204600F044F92777E8068C
:101ED00016D5F00614D510202168C04308610820EB
:101EE00020772068C0698005800F204602D0FFF768
:101EF0009FFF04E000F082F8204600F02BF92777DE
:101F0000E80708D0F00706D001202168C043086127
:101F1000204600F021F9280608D5300606D5802095
:101F20002168C04308612046FFF7DEFE680608D539
:101F3000700606D540202168C0430861204600F0A5
:101F400015F9A80608D5B00606D520202168C0439B
:101F500008612046FFF7C9FEF8BD000070B586B0E5
:101F6000044614216846FEF781FA204E23680122B8
:101F7000092000241E4952040225C006B3420ED196
:101F80004B6913434B614969029411400591032148
:101F900009020091019504950394694621E0154ECC
:101FA000B34220D14B6913434B614B6913400593F6
:101FB0004B69321313434B61496901261140059166
:101FC0008021009102940496019503946946FEF7DE
:101FD00099FE13200090029469460496019503949B
:101FE0000548FEF78FFE06B070BD0000002C0140D2
:101FF0000010024000040040000400487047F8B59B
:10200000064604462036307F00270D4601280ED0B4
:1020100001203077002A0CD0042A1BD0082A2FD0A8
:102020000C2A3ED00127002030773846F8BD022028
:10203000F8BD206801F0ACFA2068816908221143DC
:1020400081612068826904218A43826120688169F4
:102050002A6912E0206801F0D7FA2068826901211C
:10206000C9020A4382612068816901229202914378
:102070008161206881692A69120211438161D2E776
:10208000206801F0FBFA2068C16908221143C16190
:102090002068C26904218A43C2612068C1692A6933
:1020A00012E0206801F026FB2068C1690122D202FB
:1020B0001143C1612068C269012189028A43C2615A
:1020C0002068C1692A6912021143C161ABE770B58A
:1020D000040005D025462035687F002802D006E0A0
:1020E000012070BD00202877204600F015F802205E
:1020F0006877211D206801F007FA01204034A071A3
:10210000A877E87720706070A070E070207160712F
:102110006877002070BD000008B50B4A01680B48C5
:10212000914205D18269C1140A438261806907E046
:10213000074A914206D1C26902210A43C261C069BD
:102140000840009008BD0000002C01400010024033
:10215000000400407047000010B500680249884242
:1021600001D1FFF725FA10BD0048014070477047C4
:1021700070470000F8B502680446D069116893689A
:102180009E4D06462E4025468035002E71D09C4F30
:10219000DE07F60F0F4037437ED0C70706D0CF05C6
:1021A00004D5012717626A683A436A60820708D536
:1021B000DA0706D0276802223A626A6804273A439F
:1021C0006A60420708D5DA0706D0236804221A623B
:1021D0006A6802231A436A60020709D520220A406E
:1021E000324305D0236808221A626B6813436B6080
:1021F000020509D54A0107D501222368D2021A62D5
:102200006B68202213436B606A68002A39D080060D
:1022100006D5880604D5A16E002901D0204688473E
:10222000686821688968490602D4282108422DD0AF
:10223000204601F061FB21688868400622D5EFF353
:102240001080012282F310888A6840239A438A60B2
:1022500080F31088606F002814D06A494163606F72
:10226000FEF77AFC00280CD0606F416B08E000E0BC
:1022700012E0830610D58B060ED5A16EA3E0204692
:102280008847F8BD2046FFF773FFF8BD2046FFF7EB
:102290006FFF00206860F8BD236E012B7ED1C3065E
:1022A0007CD5CB067AD51023136222689068264627
:1022B00040064036002848DA616F0868406800042C
:1022C000000CE8D0378B8742E5D9708388692028D5
:1022D00034D0EFF31080012181F3108811681F01C1
:1022E000B943116080F31088EFF31080012181F36E
:1022F000108821688A68520852008A6080F310882A
:10230000EFF31080012181F3108821688A6840274B
:10231000BA438A6080F3108820202860002020665D
:10232000EFF31080012181F3108821680A689A4335
:102330000A6080F31088606FFEF7EEFB0220606693
:10234000308B718B401A81B234E0308B718B401A24
:1023500081B2708B00289ED000299CD0EFF31080B2
:10236000012686F310881668FF272137BE431660C2
:1023700080F31088EFF31080012282F31088226826
:10238000966876087600966080F310882020286092
:1023900000202066A066EFF3108000E00EE001222E
:1023A00082F31088226815689D43156080F31088B9
:1023B000022060662046FFF7DAFEF8BD030606D568
:1023C0000B0604D5E16E002900D058E7F8BD4006A1
:1023D000FCD54806FAD52046EFF31081012383F39C
:1023E0001088146840239C43146081F310882021D6
:1023F000C1670021C16600F0B1F8F8BD0F08000008
:1024000020010004E538000810B5040003D0E06F97
:10241000002802D007E0012010BD002178200155DE
:10242000204600F027F82420E0672068016849086A
:1024300049000160606A002802D0204601F08AF954
:10244000204601F089FA0128E6D02068416801227F
:10245000D2029143416020688168082291438160E3
:1024600020680168012211430160204601F0D8F97B
:1024700010BD0000F0B587B0064614216846FDF790
:10248000F5FF3149306888425CD1304882690121CA
:1024900089030A43826182690A4005924269C90040
:1024A0000A43426140690024084005900C200090D6
:1024B000022001900320039001200490092002943F
:1024C0006946C006FEF71EFC224D214828601020F8
:1024D000AC6068602C616C61AC618020EC61E8608C
:1024E0002846FEF7AFFB002801D0FEF7A3F91A4FEC
:1024F000386879150843386035676E621448154DA1
:102500001430443511C52C60AC60EC602C61802027
:102510006C61686028460838083DFEF793FB002888
:1025200001D0FEF787F93868012189020843386035
:102530007567002211461B206E62FFF7BFF81B2053
:10254000FFF7B0F807B0F0BD0038014000100240BE
:102550004400024048020020000001407047FEE7AE
:1025600010B50648006880694005400F034802D056
:10257000FEF708FD10BDFEF734FD10BD540000202D
:1025800010B5406A0021826B002A00D05163C26BF3
:10259000002A00D0516300F0ADFD10BD10B5406AB7
:1025A00001684A680123DB031A434A60102100F0E6
:1025B000DDF810BD10B5406AC16AC26B126852687E
:1025C000002A0BD101221204D14207D001680A6807
:1025D0000123DB039A430A6000F0F6FA10BD10B540
:1025E000406AC16A01221206914201D0002907D136
:1025F00001680A6801239B039A430A6000F0E4FA29
:1026000010BDF0B504460022CE0740342823B02583
:10261000002E05D0667842221F46B74300D0F22232
:102620008E0705D5442664783243A34300D02A435D
:10263000CB0B01D0B8231A43102908D0202907D08A
:10264000402905D00068016891430160F0BD9021E8
:102650000A43F7E7F0B51A4F436B0022F224F42542
:102660009026BB4213D0174FBB4210D0164FBB422F
:102670000DD0CB0B00D0B822CB0700D022438B0764
:1026800000D52A43102912D0202913D013E0CB0BF8
:1026900000D0B822CB0700D022438B0700D52A43B5
:1026A000102904D0202904D0402903D003E032436C
:1026B00001E060210A430068016811430160F0BD38
:1026C000352C0008A52E0008552D000801688A69E0
:1026D000D243920701D400228A6200688169C9430B
:1026E000C90703D081690122114381617047F8B5A0
:1026F000054604464035687828218143206804D087
:102700000821C16100202870F8BD8169C903CF0F7D
:102710008169FE230E0C81681E408A05C168920DF6
:1027200019408C46E168022916D10621D3090E40D2
:102730000B409E420FD1A16C491CA164A16C0229DF
:10274000E2D10021A1640823C361297039462046E3
:10275000FEF700FCF8BD66460121C9032046FFF7DD
:1027600050FF002028703246F0E70000F8B505461B
:102770000446403568780026AE703D4AE2626685C0
:10278000626C0A436264282832D0292830D02A2873
:102790002ED038492046FFF734FF2046FFF796FF3A
:1027A0006878602812D02021697020688269D2433D
:1027B00092060BD48269D243D20605D41022C2619C
:1027C000606C0422104360642068C1616663206B02
:1027D000A16B294F002903D0112812D0212810D035
:1027E000E16B002925D0122827D0222825D020E00F
:1027F00003212046FFF705FF282068701F4860630B
:10280000E5E720680168490404D5016801229203C4
:1028100091430160A06BFEF7C3F9012809D0A06BBA
:1028200047632E70A06BFEF797F9002804D0A06BC9
:102830001AE0204600F05EFCF8BD2068016809043B
:1028400004D501680122D20391430160E06BFEF7D9
:10285000A7F90128EDD0E06B47632E70E06BFEF71F
:102860007BF90028E8D0E06B416B8847F8BD000099
:102870000000FFFF0380000081250008A92F000849
:1028800070B504461648E0620025256320222046E4
:102890004030064642708570C8436563400712D4D5
:1028A0002068406A616A0870606A401C6062208D1E
:1028B000002808D0401E2085608D401E6085606C19
:1028C00004210843606407492046FFF79AFE216807
:1028D0001020C86135702046FEF754FC70BD000022
:1028E0000000FFFF03800000F8B505460091006876
:1028F0002027C7612C4640346078212803D06078B7
:10290000222806D00BE001212846FFF77AFE11208D
:1029100004E002212846FFF774FE1220286328688D
:102920004168254A11404160002624486E63E862F0
:102930000098C043C10606D42A681021D161696C91
:102940000422114369646178602905D1400703D4EA
:102950002868406AC0B200902846FFF7B7FE686C4E
:102960006178602901D0002804D0696C2846FFF7FF
:10297000FDFEF8BD607821280DD060782228F8D1BE
:1029800067702E63A078A67040282670284610D065
:10299000FEF706FCF8BD67702E63A078A67040288D
:1029A0002670284602D0FEF7FCFBF8BDFEF7FBFBC5
:1029B000F8BDFEF7F7FBF8BD00E800FE0000FFFFE2
:1029C00070B50025064640360446B5707178202063
:1029D000212970700BD012202063022120466563EC
:1029E000FFF70FFE35702046FEF7DAFB70BD1120B1
:1029F0002063012120466563FFF703FE3570204602
:102A0000FEF7CFFB70BD0000F8B502680446106801
:102A10000090E66A0F462546403568782021D1614E
:102A2000212808D0292806D022280AD02A2808D010
:102A300028280DD013E061492046FFF7E2FD212050
:102A40000CE05E492046491CFFF7DBFD222005E033
:102A50005A492046891CFFF7D4FD002020632068D6
:102A600041680122D2031143416020684168544A01
:102A7000114041602046FFF729FE0098C2435004F0
:102A800007D42068016801239B0399430160A06B70
:102A900008E010040BD4206801680123DB0399438C
:102AA0000160E06B002802D0006840686085F84350
:102AB0004007042100280FDB20688F43406A636AC7
:102AC0001870606A401C6062208D002804D0401E8F
:102AD0002085608D401E6085608D002802D0606C6E
:102AE00008436064F843C00614D4D00612D4628D43
:102AF0001020002A20D02268D061606C08436064F6
:102B0000002E03D001200006864203D1616C2046CE
:102B1000FFF72CFE0026AE706663606C00282AD09A
:102B2000616C2046FFF722FE6878282803D13946D9
:102B30002046FFF7A5FEF8BD6978282908D10121B4
:102B400049068E4204D139462046FFF799FEE1E757
:102B5000697829290CD101210904CE4208D02168C5
:102B6000C8612046FFF7B2FD204600F02DF8D1E7FE
:102B70002168C861CEE7E06A124FB8420BD0204608
:102B800000F022F8E7622020687026632E7020464D
:102B9000FEF7F8FAF8BD6878222807D02020687080
:102BA00026632E702046FEF78BFBF8BD2020687050
:102BB00026632E702046FEF761FBF8BD0180000001
:102BC00000E800FE0000FFFF70B5054600680168E0
:102BD00000262C464034A670C9434A0403D4016839
:102BE0000122920304E0090404D401680122D20303
:102BF000914301606178282029290ED061782A2923
:102C00000AD160702220286302212846FFF7F9FCD0
:102C100026702846FEF732FB70BD607021202863C5
:102C200001212846FFF7EDFC26702846FEF748FBF9
:102C300070BD0000F8B505460446403528780128E7
:102C400017D00126CB43DF06D0432E70002F12DBB6
:102C5000C20610D421681020C861606C04210843AA
:102C6000606420212046FFF7F5FC2046FFF72EFD8B
:102C70006AE00220F8BD364A1F0641D447063FD419
:102C800020680168402399430160608D0028206816
:102C900032D04168638D8905890DFF2B0BD980697E
:102CA000000CC007C00F01D0268501E0FF20208561
:102CB00001231B0608E0608D2085E06A904201D068
:102CC000E36A01E001235B0600200090208DC2B280
:102CD000204600F0F9F9608D218D401A60856878F2
:102CE00022282068016804D0012292031143016068
:102CF0002AE00122D203F9E74068800119D506E0F5
:102D00005E061AD4460618D4608D002804D04021EF
:102D10002046FFF72BFD17E020684168890113D496
:102D2000E16A914205D14168012292031143416059
:102D30000AE02046FFF744FE06E09A0604D4800627
:102D400002D42046FFF7D0FD00202870F8BD000017
:102D50000000FFFFF8B505460446403528784F4F80
:102D6000012817D00126C843C306D2432E70002B7A
:102D700012DBD30610D421681020C861606C0421D6
:102D80000843606420212046FFF764FC2046FFF7DB
:102D90009DFC7FE00220F8BD830708D4930706D48A
:102DA000206D216888620020C043206572E0030620
:102DB0003AD4530638D401212046FFF722FC1021D3
:102DC0002046FFF747FC608D002828D0608DFF2843
:102DD0001BD920688069000CC007C00F01D0268570
:102DE00001E0FF202085002000903BE0204600F01D
:102DF0006BF9608D218D401A6085687822282068E3
:102E0000016807D00122920306E0608D2085002032
:102E1000009031E00122D203114301603AE04021E9
:102E20002046FFF7A3FC35E043062CD453062AD4F2
:102E300001212046FFF7E5FB10212046FFF70AFCA1
:102E40006878222800D1164F608DFF2811D920689C
:102E50008069000CC007C00F01D0268501E0FF206B
:102E600020850097208DC2B2E06C012381B21B0641
:102E7000BCE7608D20850097208DC2B2E06C0123F5
:102E800081B25B06B2E7800604D4900602D42046E5
:102E9000FFF72AFD00202870F8BD00000020008008
:102EA00000240080F8B5C36A9446044605464035C0
:102EB0002878002601280DD001202870CF436046D5
:102EC000BA06C043002A07DB820605D42046FFF776
:102ED0009BFD65E00220F8BDFA065AD4C20658D41C
:102EE00047041022002F01DA070431D4E76BBC46F7
:102EF000002F07D0070405D467463F687F68002F7E
:102F000000D10126A76B002F05D0400403D43868F8
:102F10004068002801D0002E1DD06878282807D1ED
:102F200001204006834203D12046FFF7A9FC37E089
:102F3000687829280CD101200004C34208D02068F9
:102F4000C2612046FFF7C2FB2046FFF73DFE27E0A7
:102F50002068C26124E02068C261606C04210843DB
:102F600060646878002B02D089058B4218D1212833
:102F700006D0292804D0222804D02A2802D003E031
:102F8000212000E022202063616C2046FFF7EEFB49
:102F900006E03A0704D4000702D42046FFF7A7FB57
:102FA00000202870F8BD0000F8B50446C06A254628
:102FB00040352B78012B0CD001232B70CB439E0680
:102FC000D243002E07DB960605D42046FFF71CFDF2
:102FD00074E00220F8BD3B4EDF062FD4D7062DD477
:102FE000638D1022002B0ED02168CA61616C04220F
:102FF00011436164002801D0B0425FD1616C20466A
:10300000FFF7B4FB5AE06B78282B07D101235B064E
:10301000984203D12046FFF733FC4FE06978292915
:1030200009D101210904C84205D02068C2612046A7
:10303000FFF74CFB3FE02068C2613FE05F0719D417
:10304000570717D4618D00290CD02168496A626A3C
:103050001170616A491C6162218D491E2185618D53
:10306000491E6185618D002928D101210904C842CA
:1030700021D123E01F0705D4170703D42046FFF70B
:1030800036FB1BE0990719D4910717D4618D0029ED
:103090000DD0606A216800788862606A401C6062B6
:1030A000608D401E6085208D401E208506E0B04268
:1030B00001D0002802D12046FFF786FD00202870AD
:1030C000F8BD000000000001890510B5890D12044B
:1030D0001143029C19430268214349005068490882
:1030E000630D034C234398430843506010BD000018
:1030F000FF63FF0310B5014640314B780022602B7F
:1031000004D002630A70FDF789FF10BD20234B70C5
:1031100002630A70FDF71DFF10BD00003EB50024DC
:103120001649174800940194029412C004600422C6
:103130004460C26001218160047444748474C47466
:10314000FF22C23284614261024618321471016268
:103150000838FDF7F9FB002801D0FDF76BFB0120D3
:103160000003019000040290009469460448FDF7B2
:1031700063FB002801D0FDF75DFB3EBD002401404C
:103180001400002008B50C48416901221143416137
:10319000406910400022009011460A20FEF78EFA86
:1031A0000A20FEF77FFA002211460B20FEF786FA6E
:1031B0000B20FEF777FA08BD00100240F0B587B08B
:1031C00014216846FDF752F9284842690121C904D3
:1031D0000A43426142690A4005924269C9000A43B2
:1031E000426142690A400592426949110A434261BB
:1031F00042690A400592426949000A4342614069B6
:103200001B4D08400927FF06059000222946384635
:10321000FDF74AFE174E002231461748FDF744FEDF
:10322000072040030024009001946946029413484B
:10323000FDF768FD00950125029469463846019521
:103240000394FDF75FFD029469460B4800960195D3
:103250000394FDF757FD28030090019469460294FA
:103260000548FDF74FFD07B0F0BD0000001002401B
:10327000708C0000ECEF00000004004800080048DB
:1032800010B5154813490160832189004160482128
:1032900081600121C1600021016141618161C161E1
:1032A0000162FDF711FF002801D0FDF7C3FA0121EB
:1032B00009030948FDF704FE002801D0FDF7BAFA1A
:1032C00000210548FDF721FE002801D0FDF7B2FAE4
:1032D00010BD0000005400405400002010B592B012
:1032E00000240F941C2168461094FDF7BFF820219C
:1032F00007A8FDF7BBF82549254812C00460846083
:10330000C4602449046141600838FEF7E0FE0028EB
:1033100001D0FDF78FFA0F940FA91D481094FEF706
:1033200015FD002801D0FDF785FA60200594019471
:103330000090029403940494002269460694144871
:10334000FEF75DFE002801D0FDF774FA04226946FD
:103350000F48FEF754FE002801D0FDF76BFA01205C
:103360000794400309940C9008940A940B9407A9BD
:103370000E940748FEF7BAFC002801D0FDF75AFA70
:103380000348FEF7EBFD12B010BD0000002C014019
:1033900030010020FFFF000010B58AB00024079420
:1033A0001C2168460894FDF761F82349234812C0A0
:1033B000046084602249046141600838FEF787FE9A
:1033C000002801D0FDF736FA079407A91B48089496
:1033D000FEF7BCFC002801D0FDF72CFA602000901D
:1033E000019402940022694604941448FEF707FEF3
:1033F000002801D0FDF71EFA042269460F48FEF7A7
:10340000FEFD002801D0FDF715FA082269460B4899
:10341000FEF7F5FD002801D0FDF70CFA0C226946F5
:103420000648FEF7ECFD002801D0FDF703FA03483B
:10343000FEF794FD0AB010BD0004004078010020A2
:10344000FFFF000010B50C480A490160E121490264
:10345000416000218160C16001618161C1610C2214
:10346000016242614162FEF7CFFF002801D0FDF703
:10347000E1F910BD00380140C0010020FEE77047AF
:103480007047704710B594B030216846FCF7EEFFE6
:1034900000240F94122000900D94012012940390A8
:1034A00005900E941020109413940C9404900690A0
:1034B000119408946846FEF753FA002801D072B6BA
:1034C000FEE707200C900D940E9400210F940CA899
:1034D000FEF76CF9002801D072B6FEE721201090AB
:1034E0001294139410A8FEF7EDF8002801D072B6DC
:1034F000FEE714B010BD704710B50248FEF799FC06
:1035000010BD0000D002002070B502681B4B1C4E9D
:10351000984201D0B04203D17024A2434C682243A8
:10352000184C194D984208D0B04206D0174EB04200
:1035300003D0A04201D0A84204D103263602B243F0
:10354000CE6832438026B2434E69324302608A68B5
:10355000C2620A688262984203D0A04201D0A842A7
:1035600001D109690163012141610169C90703D0E2
:10357000016949084900016170BD0000002C01404B
:103580000004004000440140004801400020004089
:10359000F0B5056A026A5208520002624368826905
:1035A0007024A24392080C689200144302229543AF
:1035B0008A68134E2A43114DA84204D0B04202D06B
:1035C000104FB84206D10827BA43CF6817430422E8
:1035D00097433A46A84204D0B04202D0094DA842CF
:1035E00006D103252D02AB434D691D438B692B4347
:1035F00043608461496841630262F0BD002C014070
:10360000004401400048014070B5046A026A10237A
:103610009A4302624368826973252D02AA430D68AA
:103620002D021543202294438A6812012243104C34
:10363000A04208D11446CA688026B443120122432E
:103640004024A24305E00B4CA04202D00A4CA04209
:1036500008D10324A402A3434C69A4001C438B6932
:103660009B0023434360856149688163026270BDAA
:10367000002C0140004401400048014070B5056A3B
:10368000026AFF2301339A4302624268C3697024CD
:10369000A3439B080C689B001C4301235B029D43D2
:1036A0008B681B022B43104DA84208D11D46CB68E6
:1036B000C614B5431B022B430515AB4305E00B4D68
:1036C000A84202D00A4DA84208D103252D03AA43DF
:1036D0004D692D0115438A6912012A434260C46174
:1036E0004968C163036270BD002C01400044014081
:1036F0000048014030B5046A026A01231B039A4363
:1037000002624368C26973252D02AA430D682D0227
:1037100015430122520394438A68120322430A4C40
:10372000A04205D0094CA04202D0094CA04205D1CC
:103730000124A403A3434C69A40123434360C5614E
:1037400049680164026230BD002C01400044014020
:103750000048014010B5818C090707D501684A6807
:103760000123DB039A43436B1A434A60818CC907E8
:1037700007D001684A6801235B049A43836A1A43AD
:103780004A60818C890707D501684A6801231B04B8
:103790009A43C36A1A434A60818C490707D5016876
:1037A0004A6801239B049A43036B1A434A60818C45
:1037B000C90607D50268916801231B039943836BEF
:1037C00019439160818C890607D501688A680123B5
:1037D0005B039A43C36B1A438A60818C490612D5F6
:1037E00003685A6801210905046C8A4322435A6020
:1037F000026C8A4207D10268516803235B05994332
:10380000436C19435160818C090607D501684A68E9
:103810000123DB04806C9A4302434A6010BD000020
:10382000FEB507460025803704467D60FDF742FB64
:10383000019020680068264600076036002819DAE3
:10384000274800900121002249052046019B00F0F5
:1038500011F900280ED0EFF31080012181F31088B8
:1038600021680A6880239A430A6080F31088202028
:10387000E06729E020680068400728D518480090D4
:103880000121002289052046019B00F0F3F8002861
:103890001DD0EFF31080012181F3108821680A68A0
:1038A000FF2321339A430A6080F31088EFF31080DE
:1038B000012181F3108821688A68520852008A60C9
:1038C00080F310882020386035760320FEBD20204C
:1038D000E06738602566656635760020FEBD00002D
:1038E000FFFFFF0110B5406A0022014640314A83C4
:1038F0004A82FEF73DFC10BD10B5EFF310810122A6
:1039000082F3108802681368FF242134A3431360F4
:1039100081F31088EFF31081012282F3108802688E
:1039200093685B085B00936081F31088016E012946
:103930000BD1EFF31081012282F310880268136823
:103940001024A343136081F31088202280210A50A1
:1039500000210166816610BD70B50446806821694A
:10396000E2690843616900251143084321680A6838
:103970003C4B1A4002430A60216848680322120344
:103980009043E26810434860A169206A08432168B7
:103990008A680B231B029A4302438A603248006BF9
:1039A0008007800F16D0012818D0022818D00328CD
:1039B00012D010210122E369D2032C482C4E9342ED
:1039C0002AD100290ED0022913D004290DD00829AC
:1039D0003BD11FE00021EDE70221EBE70421E9E7FD
:1039E0000821E7E7FDF782FF01E0FDF78FFF0028E0
:1039F00032D0616840004A088018FCF739FD014662
:103A00001039B14221D81A49491C01400007400F22
:103A100008431FE01046ECE7002906D002290BD02E
:103A2000042905D0082910D111E0FDF75FFF01E05E
:103A3000FDF76CFF00280FD061684A081018FCF7EA
:103A400017FD01461039B14203D9012504E01046A3
:103A5000F2E780B22168C8600020A066E0662846D0
:103A600070BD0000F369FFFF0010024000127A00F1
:103A7000EFFF0000FFB506468036054681B00F46D1
:103A80000446603534E00A98401C31D0FDF712FA44
:103A90000499411A0A98814218D8002816D0206843
:103AA0000168490724D5802F22D0402F20D0C1693A
:103AB000C94309070CD4082707622046FFF71CFFFB
:103AC000776000202876012005B0F0BD0320FBE7D9
:103AD000C069C04300050BD401202168C002086200
:103AE0002046FFF709FF2020706000202876EDE7D0
:103AF0002068C1693846884305D000210398814277
:103B0000C1D00020E0E70121F8E7000010B502482D
:103B1000FEF730FB10BD0000C0010020F8B5040C1A
:103B20008BB2264682B25E430D0C1046370C5843CA
:103B3000360480190021794116466E43370C36044D
:103B40008019794126466E438919F8BD8307FF2203
:103B5000DB0E9A408907090E9940002808DB83088C
:103B600009489B001B181868904308431860704769
:103B70000007000F0838830804489B001B18D86909
:103B800090430843D861704700E400E000ED00E096
:103B9000FDF716FDFFF776FCFFF710FBFFF7F2FAD3
:103BA000FFF79CFBFFF7F8FBFFF74CFCFFF7B6FABB
:103BB000FFF766FB0448FDF71DFA00230A220349BC
:103BC0000148FDF77FFBFEE75400002018030020AA
:103BD00002030405060708090A0B0C0D0E0F10104E
:103BE0000102030405060708090A0B0C0D0E0F104D
:103BF000000000000000000001020304060708099D
:103C00000000000001020304283C0008000000201E
:103C100014000000F40000083C3C000814000020E0
:103C20008C090000100100080100000004000000E1
:0C3C30000000000000127A00193C670040
:04000005080000B13E
:00000001FF
